:100000000C9434000C9451000C9451000C94510049
:100010000C9451000C9451000C9451000C949D00D0
:100020000C9451000C9451000C9451000C9451000C
:100030000C9451000C9451000C9451000C945100FC
:100040000C9451000C9451000C9451000C945100EC
:100050000C9451000C9451000C9451000C945100DC
:100060000C9451000C94510011241FBECFEFD4E02A
:10007000DEBFCDBF11E0A0E0B1E0E2E4F3E002C0FA
:1000800005900D92A230B107D9F721E0A2E0B1E0CE
:1000900001C01D92A630B207E1F70E945A010C94EC
:1000A0009F010C9400000E94D5000C948B0097B126
:1000B00021E030E0082E01C0220F0A94EAF72095D3
:1000C000292327B997E890937A00806480937C0075
:1000D00080917A00806480937A0080917A0086FD16
:1000E000FCCF089590917C00907F90937C0090913C
:1000F0007C008F70982B90937C0080917A008064B4
:1001000080937A0080917A0086FDFCCF8091780000
:100110009091790008951092B20082E08093B0002F
:1001200085E08093B1008DE78093B300E0E7F0E0D5
:10013000808182608083789408951F920F920FB619
:100140000F9211248F939F93AF93BF9380910201DD
:1001500090910301A0910401B09105010196A11DA8
:10016000B11D8093020190930301A0930401B09309
:100170000501BF91AF919F918F910F900FBE0F908E
:100180001F901895F894609102017091030180917D
:1001900004019091050178940895569A81E884BDF0
:1001A00083E085BD089587BD0895E1ECF0E080818E
:1001B0008861808387E690E09093C5008093C400B7
:1001C00008959091C00095FFFCCF8093C60080E019
:1001D00090E00895CF93DF93EC018991882319F083
:1001E0000E94E100FACFDF91CF9108951F93CF9342
:1001F000DF93EC01FE011491812F0E94E100112395
:1002000011F02196F7CFDF91CF911F910895CF93F1
:10021000DF93CDB7DEB72A970FB6F894DEBF0FBED7
:10022000CDBF4AE0BE016F5F7F4F0E946A01CE01E1
:1002300001960E94EA002A960FB6F894DEBF0FBE20
:10024000CDBFDF91CF9108958091C00087FFFCCF93
:100250008091C6000895219A229A80EA80938000B6
:1002600082E180938100109285001092840080E2E8
:100270009EE490938700809386008CED95E09093A8
:1002800089008093880090938B0080938A00089562
:100290009B01285E3340293E334058F4811105C04C
:1002A0007093890060938800089570938B00609329
:1002B0008A0008950E94530080E091E00E94E100CE
:1002C0000E942401C82F0E94E1008C2F0E94E100AF
:1002D0008C2FF4CFBB274A3031F4992322F4BDE2AE
:1002E000909581959F4F0C947601BB27FB01552774
:1002F000AA27880F991FAA1FA41710F0A41B839583
:100300005051B9F7A05DAA3308F0A95DA1930097F9
:1003100079F7B111B1931192CB010C948F01DC01EB
:10032000FC01672F71917723E1F7329704C07C912C
:100330006D9370836291AE17BF07C8F30895F89468
:02034000FFCFED
:02034200480071
:00000001FF
